S00D0000526164696F2E7372656328
S11300000C9434000C9451000C9451000C94510045
S11300100C9451000C941F010C9451000C94510049
S11300200C9451000C9451000C9451000C94510008
S11300300C9451000C9451000C9451000C945100F8
S11300400C9451000C9451000C9451000C945100E8
S11300500C9451000C9451000C9451000C945100D8
S11300600C9451000C94510011241FBECFEFD4E026
S1130070DEBFCDBF11E0A0E0B1E0E0EEF6E002C0EB
S113008005900D92A630B107D9F721E0A6E0B1E0C2
S113009001C01D92AB30B207E1F70E94C8010C9475
S11300A06E030C94000088E48093B8000895ECEB90
S11300B0F0E0108294EA908390819923ECF7909178
S11300C0B900987F9830A1F48093BB0084E88093B2
S11300D0BC00ECEBF0E080818823ECF79091B90050
S11300E0987F983139F081E0903429F480E00895C4
S11300F081E0089580E008958093BB0084E88093B4
S1130100BC00ECEBF0E080818823ECF79091B9001F
S1130110987F81E0983209F480E00895CF92DF92CD
S1130120FF920F931F93CF93DF936B018A010E9479
S11301305700F82E811112C00115110559F0E6017E
S11301400C0D1D1D89910E947C0081110AC0C017ED
S1130150D107C1F784E98093BC0005C0FF24F39460
S113016002C0FF24F3948F2DDF91CF911F910F9143
S1130170FF90DF90CF90089584E98093BC000895A8
S113018080EC0E94570045E050E066E071E080ECAE
S11301900E948E000E94BC00089520E034E244E7EF
S11301A059E40E94010320E03AEB4BE558E40E9435
S11301B0E70120E030E040E850E40E94010320E041
S11301C030E040E058E30E9401030E945802CB0152
S11301D0089560910201709103018091040190914E
S11301E005010E94CD00E6E0F1E0908381830E9446
S11301F0C00008958091000190910101892B51F074
S1130200E6E0F1E080818068808310920101109221
S1130210000112C0609102017091030180910401F8
S1130220909105010E94CD009093060181E090E039
S113023090930101809300010E94C00008951F92D1
S11302400F920FB60F921124CF92DF92EF92FF928A
S11302502F933F934F935F936F937F938F939F93CA
S1130260AF93BF93EF93FF934A992FC02DEC3CECCF
S11302704CE45EE3609102017091030180910401FA
S1130280909105010E94E6016B017C012AE939E99C
S113029040EB52E40E94530288234CF0C0920201C6
S11302A0D0920301E0920401F09205010CC08AE9A6
S11302B099E9A0EBB2E48093020190930301A09327
S11302C00401B09305010E94E9004B992FC02DEC65
S11302D03CEC4CE45EE36091020170910301809177
S11302E00401909105010E94E7016B017C012DEC52
S11302F03CEC47ED52E40E94FC0218164CF0C0920C
S11303000201D0920301E0920401F09205010CC0B5
S11303108DEC9CECA7EDB2E4809302019093030171
S1130320A0930401B09305010E94E900499B0E9437
S1130330FA0095B181E0892785B98FE493EC0197A0
S1130340F1F700C00000FF91EF91BF91AF919F9131
S11303508F917F916F915F914F913F912F91FF907A
S1130360EF90DF90CF900F900FBE0F901F901895D5
S11303705A9A5B9A599A0895E8E6F0E0808184607D
S11303808083EDE6F0E080818E6080837894089528
S11303906091020170910301809104019091050123
S11303A00E94CD00E6E0F1E09083818382EB8283BA
S11303B080E1838314820E9453000E94E9000E941A
S11303C0FA000E94B8010E94BC01FFCF5058BB271D
S11303D0AA270E94FE010C94C2020E94B40238F0C3
S11303E00E94BB0220F039F49F3F19F426F40C94C8
S11303F0B1020EF4E095E7FB0C94AB02E92F0E94E6
S1130400D30258F3BA17620773078407950720F0DD
S113041079F4A6F50C94F5020EF4E0950B2EBA2FA0
S1130420A02D0B01B90190010C01CA01A0011124F6
S1130430FF27591B99F0593F50F4503E68F11A16A2
S1130440F040A22F232F342F4427585FF3CF469533
S113045037952795A795F0405395C9F77EF41F1655
S1130460BA0B620B730B840BBAF09150A1F0FF0F1F
S1130470BB1F661F771F881FC2F70EC0BA0F621F0B
S1130480731F841F48F4879577956795B795F795FB
S11304909E3F08F0B0CF9395880F08F09927EE0F90
S11304A09795879508950E94870208F481E008953E
S11304B00E94DB0288F09F5798F0B92F9927B75113
S11304C0B0F0E1F0660F771F881F991F1AF0BA95F4
S11304D0C9F714C0B13091F00E94F502B1E008955B
S11304E00C94F502672F782F8827B85F39F0B93F4D
S11304F0CCF3869577956795B395D9F73EF49095A7
S11305008095709561957F4F8F4F9F4F0895990FF8
S11305100008550FAA0BE0E8FEEF16161706E807C9
S1130520F907C0F012161306E407F50798F0621BEA
S1130530730B840B950B39F40A2661F0232B242BBF
S1130540252B21F408950A2609F4A140A6958FEFDE
S1130550811D811D089597F99F6780E870E060E030
S113056008959FEF80EC089500240A941616170648
S113057018060906089500240A9412161306140690
S113058005060895092E0394000C11F4882352F0F3
S1130590BB0F40F4BF2B11F460FF04C06F5F7F4FAB
S11305A08F4F9F4F089557FD9058440F551F59F092
S11305B05F3F71F04795880F97FB991F61F09F3F4C
S11305C079F087950895121613061406551FF2CF75
S11305D04695F1DF08C0161617061806991FF1CFC5
S11305E086957105610508940895E894BB276627EC
S11305F07727CB0197F908950E94870208F48FEFBB
S113060008950E9414030C94C2020E94B40238F0AC
S11306100E94BB0220F0952311F00C94AB020C94C1
S1130620B10211240C94F6020E94D30270F3959F38
S1130630C1F3950F50E0551F629FF001729FBB27D5
S1130640F00DB11D639FAA27F00DB11DAA1F649F71
S11306506627B00DA11D661F829F2227B00DA11D24
S1130660621F739FB00DA11D621F839FA00D611DAA
S1130670221F749F3327A00D611D231F849F600DCB
S1130680211D822F762F6A2F11249F5750409AF0F4
S1130690F1F088234AF0EE0FFF1FBB1F661F771F80
S11306A0881F91505040A9F79E3F510580F00C944B
S11306B0AB020C94F6025F3FE4F3983ED4F38695C4
S11306C077956795B795F795E7959F5FC1F7FE2BEB
S11306D0880F911D9695879597F90895F894FFCF03
S10906E00100CDCCC7426D
S9030000FC
