:100000000C9434000C943E000C943E000C943E0082
:100010000C943E000C943E000C943E000C943E0068
:100020000C943E000C943E000C943E000C943E0058
:100030000C943E000C943E000C943E000C943E0048
:100040000C943E000C943E000C943E000C943E0038
:100050000C943E000C943E000C943E000C943E0028
:100060000C943E000C943E0011241FBECFEFD4E050
:10007000DEBFCDBF0E945E000C947B000C9400009C
:1000800080E28093B800ECEBF0E0808184608083B4
:1000900008958091BC0087FFFCCF089584EA809387
:1000A000BC000C94490084E98093BC0008958093BF
:1000B000BB0084E88093BC000C9449000E9440007F
:1000C0000E944E0080E60E9457000E944E008EE281
:1000D0000E94570089E90E94570080EA0E94570059
:1000E00080E10E94570080E00E9457000E94530068
:0A00F00080E090E00895F894FFCF3F
:00000001FF
